{
  "address": "0x0590C24215F0023494F6bdDE7F16cDd118D4Bc4A",
  "abi": [
    {
      "inputs": [
        {
          "internalType": "string",
          "name": "_tokenURI",
          "type": "string"
        },
        {
          "internalType": "address",
          "name": "_governor",
          "type": "address"
        },
        {
          "internalType": "address",
          "name": "_COLO",
          "type": "address"
        }
      ],
      "stateMutability": "nonpayable",
      "type": "constructor"
    },
    {
      "anonymous": false,
      "inputs": [
        {
          "indexed": true,
          "internalType": "address",
          "name": "owner",
          "type": "address"
        },
        {
          "indexed": true,
          "internalType": "address",
          "name": "approved",
          "type": "address"
        },
        {
          "indexed": true,
          "internalType": "uint256",
          "name": "tokenId",
          "type": "uint256"
        }
      ],
      "name": "Approval",
      "type": "event"
    },
    {
      "anonymous": false,
      "inputs": [
        {
          "indexed": true,
          "internalType": "address",
          "name": "owner",
          "type": "address"
        },
        {
          "indexed": true,
          "internalType": "address",
          "name": "operator",
          "type": "address"
        },
        {
          "indexed": false,
          "internalType": "bool",
          "name": "approved",
          "type": "bool"
        }
      ],
      "name": "ApprovalForAll",
      "type": "event"
    },
    {
      "anonymous": false,
      "inputs": [
        {
          "indexed": true,
          "internalType": "address",
          "name": "previousOwner",
          "type": "address"
        },
        {
          "indexed": true,
          "internalType": "address",
          "name": "newOwner",
          "type": "address"
        }
      ],
      "name": "OwnershipTransferred",
      "type": "event"
    },
    {
      "anonymous": false,
      "inputs": [
        {
          "indexed": true,
          "internalType": "address",
          "name": "from",
          "type": "address"
        },
        {
          "indexed": true,
          "internalType": "address",
          "name": "to",
          "type": "address"
        },
        {
          "indexed": true,
          "internalType": "uint256",
          "name": "tokenId",
          "type": "uint256"
        }
      ],
      "name": "Transfer",
      "type": "event"
    },
    {
      "inputs": [],
      "name": "COLO",
      "outputs": [
        {
          "internalType": "contract COLOInterface",
          "name": "",
          "type": "address"
        }
      ],
      "stateMutability": "view",
      "type": "function"
    },
    {
      "inputs": [
        {
          "internalType": "address",
          "name": "to",
          "type": "address"
        },
        {
          "internalType": "uint256",
          "name": "tokenId",
          "type": "uint256"
        }
      ],
      "name": "approve",
      "outputs": [],
      "stateMutability": "nonpayable",
      "type": "function"
    },
    {
      "inputs": [
        {
          "internalType": "address",
          "name": "owner",
          "type": "address"
        }
      ],
      "name": "balanceOf",
      "outputs": [
        {
          "internalType": "uint256",
          "name": "",
          "type": "uint256"
        }
      ],
      "stateMutability": "view",
      "type": "function"
    },
    {
      "inputs": [],
      "name": "baseURI",
      "outputs": [
        {
          "internalType": "string",
          "name": "",
          "type": "string"
        }
      ],
      "stateMutability": "view",
      "type": "function"
    },
    {
      "inputs": [
        {
          "internalType": "uint256",
          "name": "proposalId",
          "type": "uint256"
        }
      ],
      "name": "denyMembership",
      "outputs": [],
      "stateMutability": "nonpayable",
      "type": "function"
    },
    {
      "inputs": [
        {
          "internalType": "uint256",
          "name": "tokenId",
          "type": "uint256"
        }
      ],
      "name": "getApproved",
      "outputs": [
        {
          "internalType": "address",
          "name": "",
          "type": "address"
        }
      ],
      "stateMutability": "view",
      "type": "function"
    },
    {
      "inputs": [
        {
          "internalType": "uint256",
          "name": "proposalId",
          "type": "uint256"
        }
      ],
      "name": "grantMembership",
      "outputs": [
        {
          "internalType": "uint256",
          "name": "",
          "type": "uint256"
        }
      ],
      "stateMutability": "nonpayable",
      "type": "function"
    },
    {
      "inputs": [
        {
          "internalType": "address",
          "name": "owner",
          "type": "address"
        },
        {
          "internalType": "address",
          "name": "operator",
          "type": "address"
        }
      ],
      "name": "isApprovedForAll",
      "outputs": [
        {
          "internalType": "bool",
          "name": "",
          "type": "bool"
        }
      ],
      "stateMutability": "view",
      "type": "function"
    },
    {
      "inputs": [
        {
          "internalType": "address",
          "name": "",
          "type": "address"
        }
      ],
      "name": "latestProposalIds",
      "outputs": [
        {
          "internalType": "uint256",
          "name": "",
          "type": "uint256"
        }
      ],
      "stateMutability": "view",
      "type": "function"
    },
    {
      "inputs": [],
      "name": "name",
      "outputs": [
        {
          "internalType": "string",
          "name": "",
          "type": "string"
        }
      ],
      "stateMutability": "view",
      "type": "function"
    },
    {
      "inputs": [],
      "name": "owner",
      "outputs": [
        {
          "internalType": "address",
          "name": "",
          "type": "address"
        }
      ],
      "stateMutability": "view",
      "type": "function"
    },
    {
      "inputs": [
        {
          "internalType": "uint256",
          "name": "tokenId",
          "type": "uint256"
        }
      ],
      "name": "ownerOf",
      "outputs": [
        {
          "internalType": "address",
          "name": "",
          "type": "address"
        }
      ],
      "stateMutability": "view",
      "type": "function"
    },
    {
      "inputs": [],
      "name": "proposalCount",
      "outputs": [
        {
          "internalType": "uint256",
          "name": "",
          "type": "uint256"
        }
      ],
      "stateMutability": "view",
      "type": "function"
    },
    {
      "inputs": [
        {
          "internalType": "uint256",
          "name": "",
          "type": "uint256"
        }
      ],
      "name": "proposals",
      "outputs": [
        {
          "internalType": "uint256",
          "name": "id",
          "type": "uint256"
        },
        {
          "internalType": "address",
          "name": "proposer",
          "type": "address"
        },
        {
          "internalType": "string",
          "name": "did",
          "type": "string"
        },
        {
          "internalType": "bool",
          "name": "accepted",
          "type": "bool"
        },
        {
          "internalType": "bool",
          "name": "revision",
          "type": "bool"
        }
      ],
      "stateMutability": "view",
      "type": "function"
    },
    {
      "inputs": [],
      "name": "renounceOwnership",
      "outputs": [],
      "stateMutability": "nonpayable",
      "type": "function"
    },
    {
      "inputs": [
        {
          "internalType": "string",
          "name": "_did",
          "type": "string"
        }
      ],
      "name": "requestMembership",
      "outputs": [],
      "stateMutability": "nonpayable",
      "type": "function"
    },
    {
      "inputs": [
        {
          "internalType": "address",
          "name": "from",
          "type": "address"
        },
        {
          "internalType": "address",
          "name": "to",
          "type": "address"
        },
        {
          "internalType": "uint256",
          "name": "tokenId",
          "type": "uint256"
        }
      ],
      "name": "safeTransferFrom",
      "outputs": [],
      "stateMutability": "nonpayable",
      "type": "function"
    },
    {
      "inputs": [
        {
          "internalType": "address",
          "name": "from",
          "type": "address"
        },
        {
          "internalType": "address",
          "name": "to",
          "type": "address"
        },
        {
          "internalType": "uint256",
          "name": "tokenId",
          "type": "uint256"
        },
        {
          "internalType": "bytes",
          "name": "_data",
          "type": "bytes"
        }
      ],
      "name": "safeTransferFrom",
      "outputs": [],
      "stateMutability": "nonpayable",
      "type": "function"
    },
    {
      "inputs": [
        {
          "internalType": "address",
          "name": "operator",
          "type": "address"
        },
        {
          "internalType": "bool",
          "name": "approved",
          "type": "bool"
        }
      ],
      "name": "setApprovalForAll",
      "outputs": [],
      "stateMutability": "nonpayable",
      "type": "function"
    },
    {
      "inputs": [
        {
          "internalType": "bytes4",
          "name": "interfaceId",
          "type": "bytes4"
        }
      ],
      "name": "supportsInterface",
      "outputs": [
        {
          "internalType": "bool",
          "name": "",
          "type": "bool"
        }
      ],
      "stateMutability": "view",
      "type": "function"
    },
    {
      "inputs": [],
      "name": "symbol",
      "outputs": [
        {
          "internalType": "string",
          "name": "",
          "type": "string"
        }
      ],
      "stateMutability": "view",
      "type": "function"
    },
    {
      "inputs": [
        {
          "internalType": "uint256",
          "name": "index",
          "type": "uint256"
        }
      ],
      "name": "tokenByIndex",
      "outputs": [
        {
          "internalType": "uint256",
          "name": "",
          "type": "uint256"
        }
      ],
      "stateMutability": "view",
      "type": "function"
    },
    {
      "inputs": [
        {
          "internalType": "address",
          "name": "owner",
          "type": "address"
        },
        {
          "internalType": "uint256",
          "name": "index",
          "type": "uint256"
        }
      ],
      "name": "tokenOfOwnerByIndex",
      "outputs": [
        {
          "internalType": "uint256",
          "name": "",
          "type": "uint256"
        }
      ],
      "stateMutability": "view",
      "type": "function"
    },
    {
      "inputs": [],
      "name": "tokenURI",
      "outputs": [
        {
          "internalType": "string",
          "name": "",
          "type": "string"
        }
      ],
      "stateMutability": "view",
      "type": "function"
    },
    {
      "inputs": [
        {
          "internalType": "uint256",
          "name": "tokenId",
          "type": "uint256"
        }
      ],
      "name": "tokenURI",
      "outputs": [
        {
          "internalType": "string",
          "name": "",
          "type": "string"
        }
      ],
      "stateMutability": "view",
      "type": "function"
    },
    {
      "inputs": [],
      "name": "totalSupply",
      "outputs": [
        {
          "internalType": "uint256",
          "name": "",
          "type": "uint256"
        }
      ],
      "stateMutability": "view",
      "type": "function"
    },
    {
      "inputs": [
        {
          "internalType": "address",
          "name": "from",
          "type": "address"
        },
        {
          "internalType": "address",
          "name": "to",
          "type": "address"
        },
        {
          "internalType": "uint256",
          "name": "tokenId",
          "type": "uint256"
        }
      ],
      "name": "transferFrom",
      "outputs": [],
      "stateMutability": "nonpayable",
      "type": "function"
    },
    {
      "inputs": [
        {
          "internalType": "address",
          "name": "newOwner",
          "type": "address"
        }
      ],
      "name": "transferOwnership",
      "outputs": [],
      "stateMutability": "nonpayable",
      "type": "function"
    }
  ],
  "transactionHash": "0x8e71af8e570dde96aac8c73a6083d417c44951d2bfe2c7240d117dd82b2c3a68",
  "args": [
    "0x5A9aaB4a0442Af0402aB04bfff6f823529e36feB",
    "0x05674EdFC2Cc66924AdAF8e2eE5692818017a858",
    "0x834Cd15FF1001a63EF7D397c8Ccd23520A654c0f"
  ],
  "solcInputHash": "f7bd6d4665a363ca6ca476a437e171ad",
  "bytecode": "0x6080604052670de0b6b3a7640000600f553480156200001d57600080fd5b5060405162002c1838038062002c18833981810160405260608110156200004357600080fd5b81019080805160405193929190846401000000008211156200006457600080fd5b9083019060208201858111156200007a57600080fd5b82516401000000008111828201881017156200009557600080fd5b82525081516020918201929091019080838360005b83811015620000c4578181015183820152602001620000aa565b50505050905090810190601f168015620000f25780820380516001836020036101000a031916815260200191505b506040818152602083810151938201518383018352600a84526904d656d626572736869760b41b828501528251808401909352600383526210d3d360ea1b9183019190915292945091925090620001506301ffc9a760e01b62000243565b815162000165906006906020850190620003e6565b5080516200017b906007906020840190620003e6565b506200018e6380ac58cd60e01b62000243565b620001a0635b5e139f60e01b62000243565b620001b263780e9d6360e01b62000243565b5060009050620001c1620002c8565b600a80546001600160a01b0319166001600160a01b0383169081179091556040519192509060009060008051602062002bf8833981519152908290a35082516200021390600c906020860190620003e6565b50600e80546001600160a01b0319166001600160a01b0383161790556200023a82620002cc565b50505062000492565b6001600160e01b03198082161415620002a3576040805162461bcd60e51b815260206004820152601c60248201527f4552433136353a20696e76616c696420696e7465726661636520696400000000604482015290519081900360640190fd5b6001600160e01b0319166000908152602081905260409020805460ff19166001179055565b3390565b620002d6620002c8565b6001600160a01b0316620002e9620003d7565b6001600160a01b03161462000345576040805162461bcd60e51b815260206004820181905260248201527f4f776e61626c653a2063616c6c6572206973206e6f7420746865206f776e6572604482015290519081900360640190fd5b6001600160a01b0381166200038c5760405162461bcd60e51b815260040180806020018281038252602681526020018062002bd26026913960400191505060405180910390fd5b600a546040516001600160a01b0380841692169060008051602062002bf883398151915290600090a3600a80546001600160a01b0319166001600160a01b0392909216919091179055565b600a546001600160a01b031690565b828054600181600116156101000203166002900490600052602060002090601f0160209004810192826200041e576000855562000469565b82601f106200043957805160ff191683800117855562000469565b8280016001018555821562000469579182015b82811115620004695782518255916020019190600101906200044c565b50620004779291506200047b565b5090565b5b808211156200047757600081556001016200047c565b61273080620004a26000396000f3fe608060405234801561001057600080fd5b50600436106101c45760003560e01c80635aa5e948116100f9578063a22cb46511610097578063da35c66411610071578063da35c664146106e2578063e051476e146106ea578063e985e9c514610707578063f2fde38b14610735576101c4565b8063a22cb465146105d1578063b88d4fde146105ff578063c87b56dd146106c5576101c4565b806370a08231116100d357806370a0823114610593578063715018a6146105b95780638da5cb5b146105c157806395d89b41146105c9576101c4565b80635aa5e948146104c85780636352211e1461056e5780636c0360eb1461058b576101c4565b806318160ddd116101665780633c130d90116101405780633c130d901461045057806342842e0e146104585780634b4acc761461048e5780634f6ccce7146104ab576101c4565b806318160ddd146103e657806323b872dd146103ee5780632f745c5914610424576101c4565b8063081812fc116101a2578063081812fc1461033f578063095ea7b3146103785780630ec8e358146103a657806317977c61146103ae576101c4565b8063013cf08b146101c957806301ffc9a71461028757806306fdde03146102c2575b600080fd5b6101e6600480360360208110156101df57600080fd5b503561075b565b60405180868152602001856001600160a01b031681526020018060200184151581526020018315158152602001828103825285818151815260200191508051906020019080838360005b83811015610248578181015183820152602001610230565b50505050905090810190601f1680156102755780820380516001836020036101000a031916815260200191505b50965050505050505060405180910390f35b6102ae6004803603602081101561029d57600080fd5b50356001600160e01b031916610823565b604080519115158252519081900360200190f35b6102ca610846565b6040805160208082528351818301528351919283929083019185019080838360005b838110156103045781810151838201526020016102ec565b50505050905090810190601f1680156103315780820380516001836020036101000a031916815260200191505b509250505060405180910390f35b61035c6004803603602081101561035557600080fd5b50356108dc565b604080516001600160a01b039092168252519081900360200190f35b6103a46004803603604081101561038e57600080fd5b506001600160a01b03813516906020013561093e565b005b61035c610a19565b6103d4600480360360208110156103c457600080fd5b50356001600160a01b0316610a28565b60408051918252519081900360200190f35b6103d4610a3a565b6103a46004803603606081101561040457600080fd5b506001600160a01b03813581169160208101359091169060400135610a4b565b6103d46004803603604081101561043a57600080fd5b506001600160a01b038135169060200135610aa2565b6102ca610acd565b6103a46004803603606081101561046e57600080fd5b506001600160a01b03813581169160208101359091169060400135610b5b565b6103a4600480360360208110156104a457600080fd5b5035610b76565b6103d4600480360360208110156104c157600080fd5b5035610c61565b6103a4600480360360208110156104de57600080fd5b8101906020810181356401000000008111156104f957600080fd5b82018360208201111561050b57600080fd5b8035906020019184600183028401116401000000008311171561052d57600080fd5b91908080601f016020809104026020016040519081016040528093929190818152602001838380828437600092019190915250929550610c77945050505050565b61035c6004803603602081101561058457600080fd5b5035610da0565b6102ca610dc8565b6103d4600480360360208110156105a957600080fd5b50356001600160a01b0316610e29565b6103a4610e91565b61035c610f3d565b6102ca610f4c565b6103a4600480360360408110156105e757600080fd5b506001600160a01b0381351690602001351515610fad565b6103a46004803603608081101561061557600080fd5b6001600160a01b0382358116926020810135909116916040820135919081019060808101606082013564010000000081111561065057600080fd5b82018360208201111561066257600080fd5b8035906020019184600183028401116401000000008311171561068457600080fd5b91908080601f0160208091040260200160405190810160405280939291908181526020018383808284376000920191909152509295506110b2945050505050565b6102ca600480360360208110156106db57600080fd5b5035611110565b6103d4611393565b6103d46004803603602081101561070057600080fd5b5035611399565b6102ae6004803603604081101561071d57600080fd5b506001600160a01b03813581169160200135166115cc565b6103a46004803603602081101561074b57600080fd5b50356001600160a01b03166115fa565b60106020908152600091825260409182902080546001808301546002808501805488516101009582161595909502600019011691909104601f810187900487028401870190975286835292956001600160a01b03909116949192918301828280156108075780601f106107dc57610100808354040283529160200191610807565b820191906000526020600020905b8154815290600101906020018083116107ea57829003601f168201915b5050506003909301549192505060ff8082169161010090041685565b6001600160e01b0319811660009081526020819052604090205460ff165b919050565b60068054604080516020601f60026000196101006001881615020190951694909404938401819004810282018101909252828152606093909290918301828280156108d25780601f106108a7576101008083540402835291602001916108d2565b820191906000526020600020905b8154815290600101906020018083116108b557829003601f168201915b5050505050905090565b60006108e7826116fd565b6109225760405162461bcd60e51b815260040180806020018281038252602c8152602001806125d9602c913960400191505060405180910390fd5b506000908152600460205260409020546001600160a01b031690565b600061094982610da0565b9050806001600160a01b0316836001600160a01b0316141561099c5760405162461bcd60e51b81526004018080602001828103825260218152602001806126a96021913960400191505060405180910390fd5b806001600160a01b03166109ae61170a565b6001600160a01b031614806109cf57506109cf816109ca61170a565b6115cc565b610a0a5760405162461bcd60e51b815260040180806020018281038252603881526020018061252c6038913960400191505060405180910390fd5b610a14838361170e565b505050565b600e546001600160a01b031681565b60116020526000908152604090205481565b6000610a46600261177c565b905090565b610a5c610a5661170a565b82611787565b610a975760405162461bcd60e51b81526004018080602001828103825260318152602001806126ca6031913960400191505060405180910390fd5b610a1483838361182b565b6001600160a01b0382166000908152600160205260408120610ac49083611977565b90505b92915050565b600c805460408051602060026001851615610100026000190190941693909304601f81018490048402820184019092528181529291830182828015610b535780601f10610b2857610100808354040283529160200191610b53565b820191906000526020600020905b815481529060010190602001808311610b3657829003601f168201915b505050505081565b610a14838383604051806020016040528060008152506110b2565b610b7e61170a565b6001600160a01b0316610b8f610f3d565b6001600160a01b031614610bd8576040805162461bcd60e51b81526020600482018190526024820152600080516020612631833981519152604482015290519081900360640190fd5b60008181526010602052604090206001810154610bfd906001600160a01b0316610e29565b15610c48576040805162461bcd60e51b815260206004820152601660248201527510d85b89dd0819195b9e48185b88185c1c1c9bdd995960521b604482015290519081900360640190fd5b600301805460ff1961ff00199091166101001716905550565b600080610c6f600284611983565b509392505050565b3360009081526011602052604090205480610cd9576040805162461bcd60e51b815260206004820152601e60248201527f4f6e65206c6976652070726f706f73616c207065722070726f706f7365720000604482015290519081900360640190fd5b600d80546001019055610cea612384565b506040805160a081018252600d548082523360208084019182528385018781526000606086018190526080860181905293845260108252949092208351815590516001820180546001600160a01b0319166001600160a01b0390921691909117905592518051929384939092610d679260028501929101906123c0565b5060608201516003909101805460809093015115156101000261ff001992151560ff199094169390931791909116919091179055505050565b6000610ac78260405180606001604052806029815260200161258e602991396002919061199f565b60098054604080516020601f60026000196101006001881615020190951694909404938401819004810282018101909252828152606093909290918301828280156108d25780601f106108a7576101008083540402835291602001916108d2565b60006001600160a01b038216610e705760405162461bcd60e51b815260040180806020018281038252602a815260200180612564602a913960400191505060405180910390fd5b6001600160a01b0382166000908152600160205260409020610ac79061177c565b610e9961170a565b6001600160a01b0316610eaa610f3d565b6001600160a01b031614610ef3576040805162461bcd60e51b81526020600482018190526024820152600080516020612631833981519152604482015290519081900360640190fd5b600a546040516000916001600160a01b0316907f8be0079c531659141344cd1fd0a4f28419497f9722a3daafe3b4186f6b6457e0908390a3600a80546001600160a01b0319169055565b600a546001600160a01b031690565b60078054604080516020601f60026000196101006001881615020190951694909404938401819004810282018101909252828152606093909290918301828280156108d25780601f106108a7576101008083540402835291602001916108d2565b610fb561170a565b6001600160a01b0316826001600160a01b0316141561101b576040805162461bcd60e51b815260206004820152601960248201527f4552433732313a20617070726f766520746f2063616c6c657200000000000000604482015290519081900360640190fd5b806005600061102861170a565b6001600160a01b03908116825260208083019390935260409182016000908120918716808252919093529120805460ff19169215159290921790915561106c61170a565b6001600160a01b03167f17307eab39ab6107e8899845ad3d59bd9653f200f220920489ca2b5937696c318360405180821515815260200191505060405180910390a35050565b6110c36110bd61170a565b83611787565b6110fe5760405162461bcd60e51b81526004018080602001828103825260318152602001806126ca6031913960400191505060405180910390fd5b61110a848484846119b6565b50505050565b606061111b826116fd565b6111565760405162461bcd60e51b815260040180806020018281038252602f81526020018061267a602f913960400191505060405180910390fd5b60008281526008602090815260409182902080548351601f60026000196101006001861615020190931692909204918201849004840281018401909452808452606093928301828280156111eb5780601f106111c0576101008083540402835291602001916111eb565b820191906000526020600020905b8154815290600101906020018083116111ce57829003601f168201915b5050505050905060606111fc610dc8565b905080516000141561121057509050610841565b8151156112d15780826040516020018083805190602001908083835b6020831061124b5780518252601f19909201916020918201910161122c565b51815160209384036101000a600019018019909216911617905285519190930192850191508083835b602083106112935780518252601f199092019160209182019101611274565b6001836020036101000a0380198251168184511680821785525050505050509050019250505060405160208183030381529060405292505050610841565b806112db85611a08565b6040516020018083805190602001908083835b6020831061130d5780518252601f1990920191602091820191016112ee565b51815160209384036101000a600019018019909216911617905285519190930192850191508083835b602083106113555780518252601f199092019160209182019101611336565b6001836020036101000a0380198251168184511680821785525050505050509050019250505060405160208183030381529060405292505050919050565b600d5481565b60006113a361170a565b6001600160a01b03166113b4610f3d565b6001600160a01b0316146113fd576040805162461bcd60e51b81526020600482018190526024820152600080516020612631833981519152604482015290519081900360640190fd5b611407600b611ae3565b6000828152601060205260409020600181015461142c906001600160a01b0316610e29565b15611476576040805162461bcd60e51b815260206004820152601560248201527443616e2774206d696e742074776f20746f6b656e7360581b604482015290519081900360640190fd5b60038101805461ff001960ff1990911660011716610100179055600061149c600b611aec565b60018301549091506114b7906001600160a01b031682611af0565b600c805460408051602060026001851615610100026000190190941693909304601f810184900484028201840190925281815261154f938593919290918301828280156115455780601f1061151a57610100808354040283529160200191611545565b820191906000526020600020905b81548152906001019060200180831161152857829003601f168201915b5050505050611c1e565b600e546001830154600f54604080516340c10f1960e01b81526001600160a01b03938416600482015260248101929092525191909216916340c10f1991604480830192600092919082900301818387803b1580156115ac57600080fd5b505af11580156115c0573d6000803e3d6000fd5b50929695505050505050565b6001600160a01b03918216600090815260056020908152604080832093909416825291909152205460ff1690565b61160261170a565b6001600160a01b0316611613610f3d565b6001600160a01b03161461165c576040805162461bcd60e51b81526020600482018190526024820152600080516020612631833981519152604482015290519081900360640190fd5b6001600160a01b0381166116a15760405162461bcd60e51b81526004018080602001828103825260268152602001806124b66026913960400191505060405180910390fd5b600a546040516001600160a01b038084169216907f8be0079c531659141344cd1fd0a4f28419497f9722a3daafe3b4186f6b6457e090600090a3600a80546001600160a01b0319166001600160a01b0392909216919091179055565b6000610ac7600283611c81565b3390565b600081815260046020526040902080546001600160a01b0319166001600160a01b038416908117909155819061174382610da0565b6001600160a01b03167f8c5be1e5ebec7d5bd14f71427d1e84f3dd0314c0f7b2291e5b200ac8c7c3b92560405160405180910390a45050565b6000610ac782611aec565b6000611792826116fd565b6117cd5760405162461bcd60e51b815260040180806020018281038252602c815260200180612500602c913960400191505060405180910390fd5b60006117d883610da0565b9050806001600160a01b0316846001600160a01b031614806118135750836001600160a01b0316611808846108dc565b6001600160a01b0316145b80611823575061182381856115cc565b949350505050565b826001600160a01b031661183e82610da0565b6001600160a01b0316146118835760405162461bcd60e51b81526004018080602001828103825260298152602001806126516029913960400191505060405180910390fd5b6001600160a01b0382166118c85760405162461bcd60e51b81526004018080602001828103825260248152602001806124dc6024913960400191505060405180910390fd5b6118d3838383611c8d565b6118de60008261170e565b6001600160a01b03831660009081526001602052604090206119009082611cf4565b506001600160a01b03821660009081526001602052604090206119239082611d00565b5061193060028284611d0c565b5080826001600160a01b0316846001600160a01b03167fddf252ad1be2c89b69c2b068fc378daa952ba7f163c4a11628f55a4df523b3ef60405160405180910390a4505050565b6000610ac48383611d22565b60008080806119928686611d86565b9097909650945050505050565b60006119ac848484611e01565b90505b9392505050565b6119c184848461182b565b6119cd84848484611ecb565b61110a5760405162461bcd60e51b81526004018080602001828103825260328152602001806124846032913960400191505060405180910390fd5b606081611a2d57506040805180820190915260018152600360fc1b6020820152610841565b8160005b8115611a4557600101600a82049150611a31565b60608167ffffffffffffffff81118015611a5e57600080fd5b506040519080825280601f01601f191660200182016040528015611a89576020820181803683370190505b50859350905060001982015b8315611ada57600a840660300160f81b82828060019003935081518110611ab857fe5b60200101906001600160f81b031916908160001a905350600a84049350611a95565b50949350505050565b80546001019055565b5490565b6001600160a01b038216611b4b576040805162461bcd60e51b815260206004820181905260248201527f4552433732313a206d696e7420746f20746865207a65726f2061646472657373604482015290519081900360640190fd5b611b54816116fd565b15611ba6576040805162461bcd60e51b815260206004820152601c60248201527f4552433732313a20746f6b656e20616c7265616479206d696e74656400000000604482015290519081900360640190fd5b611bb260008383611c8d565b6001600160a01b0382166000908152600160205260409020611bd49082611d00565b50611be160028284611d0c565b5060405181906001600160a01b038416906000907fddf252ad1be2c89b69c2b068fc378daa952ba7f163c4a11628f55a4df523b3ef908290a45050565b611c27826116fd565b611c625760405162461bcd60e51b815260040180806020018281038252602c815260200180612605602c913960400191505060405180910390fd5b60008281526008602090815260409091208251610a14928401906123c0565b6000610ac48383612033565b611c98838383610a14565b6001600160a01b03831615610a14576040805162461bcd60e51b815260206004820152601760248201527f546f6b656e2063616e2774206265207472616e73666572000000000000000000604482015290519081900360640190fd5b6000610ac4838361204b565b6000610ac48383612111565b60006119ac84846001600160a01b03851661215b565b81546000908210611d645760405162461bcd60e51b81526004018080602001828103825260228152602001806124626022913960400191505060405180910390fd5b826000018281548110611d7357fe5b9060005260206000200154905092915050565b815460009081908310611dca5760405162461bcd60e51b81526004018080602001828103825260228152602001806125b76022913960400191505060405180910390fd5b6000846000018481548110611ddb57fe5b906000526020600020906002020190508060000154816001015492509250509250929050565b60008281526001840160205260408120548281611e9c5760405162461bcd60e51b81526004018080602001828103825283818151815260200191508051906020019080838360005b83811015611e61578181015183820152602001611e49565b50505050905090810190601f168015611e8e5780820380516001836020036101000a031916815260200191505b509250505060405180910390fd5b50846000016001820381548110611eaf57fe5b9060005260206000209060020201600101549150509392505050565b6000611edf846001600160a01b03166121f2565b611eeb57506001611823565b6060611ff9630a85bd0160e11b611f0061170a565b88878760405160240180856001600160a01b03168152602001846001600160a01b0316815260200183815260200180602001828103825283818151815260200191508051906020019080838360005b83811015611f67578181015183820152602001611f4f565b50505050905090810190601f168015611f945780820380516001836020036101000a031916815260200191505b5095505050505050604051602081830303815290604052906001600160e01b0319166020820180516001600160e01b038381831617835250505050604051806060016040528060328152602001612484603291396001600160a01b03881691906121f8565b9050600081806020019051602081101561201257600080fd5b50516001600160e01b031916630a85bd0160e11b1492505050949350505050565b60009081526001919091016020526040902054151590565b60008181526001830160205260408120548015612107578354600019808301919081019060009087908390811061207e57fe5b906000526020600020015490508087600001848154811061209b57fe5b6000918252602080832090910192909255828152600189810190925260409020908401905586548790806120cb57fe5b60019003818190600052602060002001600090559055866001016000878152602001908152602001600020600090556001945050505050610ac7565b6000915050610ac7565b600061211d8383612033565b61215357508154600181810184556000848152602080822090930184905584548482528286019093526040902091909155610ac7565b506000610ac7565b6000828152600184016020526040812054806121c05750506040805180820182528381526020808201848152865460018181018955600089815284812095516002909302909501918255915190820155865486845281880190925292909120556119af565b828560000160018303815481106121d357fe5b90600052602060002090600202016001018190555060009150506119af565b3b151590565b60606119ac84846000858561220c856121f2565b61225d576040805162461bcd60e51b815260206004820152601d60248201527f416464726573733a2063616c6c20746f206e6f6e2d636f6e7472616374000000604482015290519081900360640190fd5b60006060866001600160a01b031685876040518082805190602001908083835b6020831061229c5780518252601f19909201916020918201910161227d565b6001836020036101000a03801982511681845116808217855250505050505090500191505060006040518083038185875af1925050503d80600081146122fe576040519150601f19603f3d011682016040523d82523d6000602084013e612303565b606091505b509150915061231382828661231e565b979650505050505050565b6060831561232d5750816119af565b82511561233d5782518084602001fd5b60405162461bcd60e51b8152602060048201818152845160248401528451859391928392604401919085019080838360008315611e61578181015183820152602001611e49565b6040518060a001604052806000815260200160006001600160a01b03168152602001606081526020016000151581526020016000151581525090565b828054600181600116156101000203166002900490600052602060002090601f0160209004810192826123f6576000855561243c565b82601f1061240f57805160ff191683800117855561243c565b8280016001018555821561243c579182015b8281111561243c578251825591602001919060010190612421565b5061244892915061244c565b5090565b5b80821115612448576000815560010161244d56fe456e756d657261626c655365743a20696e646578206f7574206f6620626f756e64734552433732313a207472616e7366657220746f206e6f6e20455243373231526563656976657220696d706c656d656e7465724f776e61626c653a206e6577206f776e657220697320746865207a65726f20616464726573734552433732313a207472616e7366657220746f20746865207a65726f20616464726573734552433732313a206f70657261746f7220717565727920666f72206e6f6e6578697374656e7420746f6b656e4552433732313a20617070726f76652063616c6c6572206973206e6f74206f776e6572206e6f7220617070726f76656420666f7220616c6c4552433732313a2062616c616e636520717565727920666f7220746865207a65726f20616464726573734552433732313a206f776e657220717565727920666f72206e6f6e6578697374656e7420746f6b656e456e756d657261626c654d61703a20696e646578206f7574206f6620626f756e64734552433732313a20617070726f76656420717565727920666f72206e6f6e6578697374656e7420746f6b656e4552433732314d657461646174613a2055524920736574206f66206e6f6e6578697374656e7420746f6b656e4f776e61626c653a2063616c6c6572206973206e6f7420746865206f776e65724552433732313a207472616e73666572206f6620746f6b656e2074686174206973206e6f74206f776e4552433732314d657461646174613a2055524920717565727920666f72206e6f6e6578697374656e7420746f6b656e4552433732313a20617070726f76616c20746f2063757272656e74206f776e65724552433732313a207472616e736665722063616c6c6572206973206e6f74206f776e6572206e6f7220617070726f766564a2646970667358221220be0c7dd44c4a1c49ec7bdf100e217f343b668ca1fbcd6f7cc4f60326b543d09164736f6c634300070500334f776e61626c653a206e6577206f776e657220697320746865207a65726f20616464726573738be0079c531659141344cd1fd0a4f28419497f9722a3daafe3b4186f6b6457e0",
  "devdoc": {
    "kind": "dev",
    "methods": {
      "approve(address,uint256)": {
        "details": "See {IERC721-approve}."
      },
      "balanceOf(address)": {
        "details": "See {IERC721-balanceOf}."
      },
      "baseURI()": {
        "details": "Returns the base URI set via {_setBaseURI}. This will be automatically added as a prefix in {tokenURI} to each token's URI, or to the token ID if no specific URI is set for that token ID."
      },
      "getApproved(uint256)": {
        "details": "See {IERC721-getApproved}."
      },
      "isApprovedForAll(address,address)": {
        "details": "See {IERC721-isApprovedForAll}."
      },
      "name()": {
        "details": "See {IERC721Metadata-name}."
      },
      "owner()": {
        "details": "Returns the address of the current owner."
      },
      "ownerOf(uint256)": {
        "details": "See {IERC721-ownerOf}."
      },
      "renounceOwnership()": {
        "details": "Leaves the contract without owner. It will not be possible to call `onlyOwner` functions anymore. Can only be called by the current owner. NOTE: Renouncing ownership will leave the contract without an owner, thereby removing any functionality that is only available to the owner."
      },
      "safeTransferFrom(address,address,uint256)": {
        "details": "See {IERC721-safeTransferFrom}."
      },
      "safeTransferFrom(address,address,uint256,bytes)": {
        "details": "See {IERC721-safeTransferFrom}."
      },
      "setApprovalForAll(address,bool)": {
        "details": "See {IERC721-setApprovalForAll}."
      },
      "supportsInterface(bytes4)": {
        "details": "See {IERC165-supportsInterface}. Time complexity O(1), guaranteed to always use less than 30 000 gas."
      },
      "symbol()": {
        "details": "See {IERC721Metadata-symbol}."
      },
      "tokenByIndex(uint256)": {
        "details": "See {IERC721Enumerable-tokenByIndex}."
      },
      "tokenOfOwnerByIndex(address,uint256)": {
        "details": "See {IERC721Enumerable-tokenOfOwnerByIndex}."
      },
      "tokenURI(uint256)": {
        "details": "See {IERC721Metadata-tokenURI}."
      },
      "totalSupply()": {
        "details": "See {IERC721Enumerable-totalSupply}."
      },
      "transferFrom(address,address,uint256)": {
        "details": "See {IERC721-transferFrom}."
      },
      "transferOwnership(address)": {
        "details": "Transfers ownership of the contract to a new account (`newOwner`). Can only be called by the current owner."
      }
    },
    "version": 1
  },
  "userdoc": {
    "kind": "user",
    "methods": {},
    "version": 1
  },
  "storageLayout": {
    "storage": [
      {
        "astId": 123,
        "contract": "contracts/Memberships.sol:Memberships",
        "label": "_supportedInterfaces",
        "offset": 0,
        "slot": "0",
        "type": "t_mapping(t_bytes4,t_bool)"
      },
      {
        "astId": 579,
        "contract": "contracts/Memberships.sol:Memberships",
        "label": "_holderTokens",
        "offset": 0,
        "slot": "1",
        "type": "t_mapping(t_address,t_struct(UintSet)2994_storage)"
      },
      {
        "astId": 581,
        "contract": "contracts/Memberships.sol:Memberships",
        "label": "_tokenOwners",
        "offset": 0,
        "slot": "2",
        "type": "t_struct(UintToAddressMap)2371_storage"
      },
      {
        "astId": 585,
        "contract": "contracts/Memberships.sol:Memberships",
        "label": "_tokenApprovals",
        "offset": 0,
        "slot": "4",
        "type": "t_mapping(t_uint256,t_address)"
      },
      {
        "astId": 591,
        "contract": "contracts/Memberships.sol:Memberships",
        "label": "_operatorApprovals",
        "offset": 0,
        "slot": "5",
        "type": "t_mapping(t_address,t_mapping(t_address,t_bool))"
      },
      {
        "astId": 593,
        "contract": "contracts/Memberships.sol:Memberships",
        "label": "_name",
        "offset": 0,
        "slot": "6",
        "type": "t_string_storage"
      },
      {
        "astId": 595,
        "contract": "contracts/Memberships.sol:Memberships",
        "label": "_symbol",
        "offset": 0,
        "slot": "7",
        "type": "t_string_storage"
      },
      {
        "astId": 599,
        "contract": "contracts/Memberships.sol:Memberships",
        "label": "_tokenURIs",
        "offset": 0,
        "slot": "8",
        "type": "t_mapping(t_uint256,t_string_storage)"
      },
      {
        "astId": 601,
        "contract": "contracts/Memberships.sol:Memberships",
        "label": "_baseURI",
        "offset": 0,
        "slot": "9",
        "type": "t_string_storage"
      },
      {
        "astId": 7,
        "contract": "contracts/Memberships.sol:Memberships",
        "label": "_owner",
        "offset": 0,
        "slot": "10",
        "type": "t_address"
      },
      {
        "astId": 6069,
        "contract": "contracts/Memberships.sol:Memberships",
        "label": "_tokenIds",
        "offset": 0,
        "slot": "11",
        "type": "t_struct(Counter)1997_storage"
      },
      {
        "astId": 6071,
        "contract": "contracts/Memberships.sol:Memberships",
        "label": "tokenURI",
        "offset": 0,
        "slot": "12",
        "type": "t_string_storage"
      },
      {
        "astId": 6073,
        "contract": "contracts/Memberships.sol:Memberships",
        "label": "proposalCount",
        "offset": 0,
        "slot": "13",
        "type": "t_uint256"
      },
      {
        "astId": 6075,
        "contract": "contracts/Memberships.sol:Memberships",
        "label": "COLO",
        "offset": 0,
        "slot": "14",
        "type": "t_contract(COLOInterface)6060"
      },
      {
        "astId": 6078,
        "contract": "contracts/Memberships.sol:Memberships",
        "label": "reward",
        "offset": 0,
        "slot": "15",
        "type": "t_uint256"
      },
      {
        "astId": 6093,
        "contract": "contracts/Memberships.sol:Memberships",
        "label": "proposals",
        "offset": 0,
        "slot": "16",
        "type": "t_mapping(t_uint256,t_struct(Proposal)6089_storage)"
      },
      {
        "astId": 6097,
        "contract": "contracts/Memberships.sol:Memberships",
        "label": "latestProposalIds",
        "offset": 0,
        "slot": "17",
        "type": "t_mapping(t_address,t_uint256)"
      }
    ],
    "types": {
      "t_address": {
        "encoding": "inplace",
        "label": "address",
        "numberOfBytes": "20"
      },
      "t_array(t_bytes32)dyn_storage": {
        "base": "t_bytes32",
        "encoding": "dynamic_array",
        "label": "bytes32[]",
        "numberOfBytes": "32"
      },
      "t_array(t_struct(MapEntry)2045_storage)dyn_storage": {
        "base": "t_struct(MapEntry)2045_storage",
        "encoding": "dynamic_array",
        "label": "struct EnumerableMap.MapEntry[]",
        "numberOfBytes": "32"
      },
      "t_bool": {
        "encoding": "inplace",
        "label": "bool",
        "numberOfBytes": "1"
      },
      "t_bytes32": {
        "encoding": "inplace",
        "label": "bytes32",
        "numberOfBytes": "32"
      },
      "t_bytes4": {
        "encoding": "inplace",
        "label": "bytes4",
        "numberOfBytes": "4"
      },
      "t_contract(COLOInterface)6060": {
        "encoding": "inplace",
        "label": "contract COLOInterface",
        "numberOfBytes": "20"
      },
      "t_mapping(t_address,t_bool)": {
        "encoding": "mapping",
        "key": "t_address",
        "label": "mapping(address => bool)",
        "numberOfBytes": "32",
        "value": "t_bool"
      },
      "t_mapping(t_address,t_mapping(t_address,t_bool))": {
        "encoding": "mapping",
        "key": "t_address",
        "label": "mapping(address => mapping(address => bool))",
        "numberOfBytes": "32",
        "value": "t_mapping(t_address,t_bool)"
      },
      "t_mapping(t_address,t_struct(UintSet)2994_storage)": {
        "encoding": "mapping",
        "key": "t_address",
        "label": "mapping(address => struct EnumerableSet.UintSet)",
        "numberOfBytes": "32",
        "value": "t_struct(UintSet)2994_storage"
      },
      "t_mapping(t_address,t_uint256)": {
        "encoding": "mapping",
        "key": "t_address",
        "label": "mapping(address => uint256)",
        "numberOfBytes": "32",
        "value": "t_uint256"
      },
      "t_mapping(t_bytes32,t_uint256)": {
        "encoding": "mapping",
        "key": "t_bytes32",
        "label": "mapping(bytes32 => uint256)",
        "numberOfBytes": "32",
        "value": "t_uint256"
      },
      "t_mapping(t_bytes4,t_bool)": {
        "encoding": "mapping",
        "key": "t_bytes4",
        "label": "mapping(bytes4 => bool)",
        "numberOfBytes": "32",
        "value": "t_bool"
      },
      "t_mapping(t_uint256,t_address)": {
        "encoding": "mapping",
        "key": "t_uint256",
        "label": "mapping(uint256 => address)",
        "numberOfBytes": "32",
        "value": "t_address"
      },
      "t_mapping(t_uint256,t_string_storage)": {
        "encoding": "mapping",
        "key": "t_uint256",
        "label": "mapping(uint256 => string)",
        "numberOfBytes": "32",
        "value": "t_string_storage"
      },
      "t_mapping(t_uint256,t_struct(Proposal)6089_storage)": {
        "encoding": "mapping",
        "key": "t_uint256",
        "label": "mapping(uint256 => struct Memberships.Proposal)",
        "numberOfBytes": "32",
        "value": "t_struct(Proposal)6089_storage"
      },
      "t_string_storage": {
        "encoding": "bytes",
        "label": "string",
        "numberOfBytes": "32"
      },
      "t_struct(Counter)1997_storage": {
        "encoding": "inplace",
        "label": "struct Counters.Counter",
        "members": [
          {
            "astId": 1996,
            "contract": "contracts/Memberships.sol:Memberships",
            "label": "_value",
            "offset": 0,
            "slot": "0",
            "type": "t_uint256"
          }
        ],
        "numberOfBytes": "32"
      },
      "t_struct(Map)2053_storage": {
        "encoding": "inplace",
        "label": "struct EnumerableMap.Map",
        "members": [
          {
            "astId": 2048,
            "contract": "contracts/Memberships.sol:Memberships",
            "label": "_entries",
            "offset": 0,
            "slot": "0",
            "type": "t_array(t_struct(MapEntry)2045_storage)dyn_storage"
          },
          {
            "astId": 2052,
            "contract": "contracts/Memberships.sol:Memberships",
            "label": "_indexes",
            "offset": 0,
            "slot": "1",
            "type": "t_mapping(t_bytes32,t_uint256)"
          }
        ],
        "numberOfBytes": "64"
      },
      "t_struct(MapEntry)2045_storage": {
        "encoding": "inplace",
        "label": "struct EnumerableMap.MapEntry",
        "members": [
          {
            "astId": 2042,
            "contract": "contracts/Memberships.sol:Memberships",
            "label": "_key",
            "offset": 0,
            "slot": "0",
            "type": "t_bytes32"
          },
          {
            "astId": 2044,
            "contract": "contracts/Memberships.sol:Memberships",
            "label": "_value",
            "offset": 0,
            "slot": "1",
            "type": "t_bytes32"
          }
        ],
        "numberOfBytes": "64"
      },
      "t_struct(Proposal)6089_storage": {
        "encoding": "inplace",
        "label": "struct Memberships.Proposal",
        "members": [
          {
            "astId": 6080,
            "contract": "contracts/Memberships.sol:Memberships",
            "label": "id",
            "offset": 0,
            "slot": "0",
            "type": "t_uint256"
          },
          {
            "astId": 6082,
            "contract": "contracts/Memberships.sol:Memberships",
            "label": "proposer",
            "offset": 0,
            "slot": "1",
            "type": "t_address"
          },
          {
            "astId": 6084,
            "contract": "contracts/Memberships.sol:Memberships",
            "label": "did",
            "offset": 0,
            "slot": "2",
            "type": "t_string_storage"
          },
          {
            "astId": 6086,
            "contract": "contracts/Memberships.sol:Memberships",
            "label": "accepted",
            "offset": 0,
            "slot": "3",
            "type": "t_bool"
          },
          {
            "astId": 6088,
            "contract": "contracts/Memberships.sol:Memberships",
            "label": "revision",
            "offset": 1,
            "slot": "3",
            "type": "t_bool"
          }
        ],
        "numberOfBytes": "128"
      },
      "t_struct(Set)2608_storage": {
        "encoding": "inplace",
        "label": "struct EnumerableSet.Set",
        "members": [
          {
            "astId": 2603,
            "contract": "contracts/Memberships.sol:Memberships",
            "label": "_values",
            "offset": 0,
            "slot": "0",
            "type": "t_array(t_bytes32)dyn_storage"
          },
          {
            "astId": 2607,
            "contract": "contracts/Memberships.sol:Memberships",
            "label": "_indexes",
            "offset": 0,
            "slot": "1",
            "type": "t_mapping(t_bytes32,t_uint256)"
          }
        ],
        "numberOfBytes": "64"
      },
      "t_struct(UintSet)2994_storage": {
        "encoding": "inplace",
        "label": "struct EnumerableSet.UintSet",
        "members": [
          {
            "astId": 2993,
            "contract": "contracts/Memberships.sol:Memberships",
            "label": "_inner",
            "offset": 0,
            "slot": "0",
            "type": "t_struct(Set)2608_storage"
          }
        ],
        "numberOfBytes": "64"
      },
      "t_struct(UintToAddressMap)2371_storage": {
        "encoding": "inplace",
        "label": "struct EnumerableMap.UintToAddressMap",
        "members": [
          {
            "astId": 2370,
            "contract": "contracts/Memberships.sol:Memberships",
            "label": "_inner",
            "offset": 0,
            "slot": "0",
            "type": "t_struct(Map)2053_storage"
          }
        ],
        "numberOfBytes": "64"
      },
      "t_uint256": {
        "encoding": "inplace",
        "label": "uint256",
        "numberOfBytes": "32"
      }
    }
  }
}