{
  "address": "0xd9647E4b3cFDA9EB32249c47b56EDa7c023e0649",
  "abi": [
    {
      "inputs": [
        {
          "internalType": "string",
          "name": "_tokenURI",
          "type": "string"
        },
        {
          "internalType": "address",
          "name": "_governor",
          "type": "address"
        }
      ],
      "stateMutability": "nonpayable",
      "type": "constructor"
    },
    {
      "anonymous": false,
      "inputs": [
        {
          "indexed": true,
          "internalType": "address",
          "name": "owner",
          "type": "address"
        },
        {
          "indexed": true,
          "internalType": "address",
          "name": "approved",
          "type": "address"
        },
        {
          "indexed": true,
          "internalType": "uint256",
          "name": "tokenId",
          "type": "uint256"
        }
      ],
      "name": "Approval",
      "type": "event"
    },
    {
      "anonymous": false,
      "inputs": [
        {
          "indexed": true,
          "internalType": "address",
          "name": "owner",
          "type": "address"
        },
        {
          "indexed": true,
          "internalType": "address",
          "name": "operator",
          "type": "address"
        },
        {
          "indexed": false,
          "internalType": "bool",
          "name": "approved",
          "type": "bool"
        }
      ],
      "name": "ApprovalForAll",
      "type": "event"
    },
    {
      "anonymous": false,
      "inputs": [
        {
          "indexed": true,
          "internalType": "address",
          "name": "previousOwner",
          "type": "address"
        },
        {
          "indexed": true,
          "internalType": "address",
          "name": "newOwner",
          "type": "address"
        }
      ],
      "name": "OwnershipTransferred",
      "type": "event"
    },
    {
      "anonymous": false,
      "inputs": [
        {
          "indexed": true,
          "internalType": "address",
          "name": "from",
          "type": "address"
        },
        {
          "indexed": true,
          "internalType": "address",
          "name": "to",
          "type": "address"
        },
        {
          "indexed": true,
          "internalType": "uint256",
          "name": "tokenId",
          "type": "uint256"
        }
      ],
      "name": "Transfer",
      "type": "event"
    },
    {
      "inputs": [
        {
          "internalType": "address",
          "name": "to",
          "type": "address"
        },
        {
          "internalType": "uint256",
          "name": "tokenId",
          "type": "uint256"
        }
      ],
      "name": "approve",
      "outputs": [],
      "stateMutability": "nonpayable",
      "type": "function"
    },
    {
      "inputs": [
        {
          "internalType": "address",
          "name": "owner",
          "type": "address"
        }
      ],
      "name": "balanceOf",
      "outputs": [
        {
          "internalType": "uint256",
          "name": "",
          "type": "uint256"
        }
      ],
      "stateMutability": "view",
      "type": "function"
    },
    {
      "inputs": [],
      "name": "baseURI",
      "outputs": [
        {
          "internalType": "string",
          "name": "",
          "type": "string"
        }
      ],
      "stateMutability": "view",
      "type": "function"
    },
    {
      "inputs": [
        {
          "internalType": "uint256",
          "name": "proposalId",
          "type": "uint256"
        }
      ],
      "name": "denyMembership",
      "outputs": [],
      "stateMutability": "nonpayable",
      "type": "function"
    },
    {
      "inputs": [
        {
          "internalType": "uint256",
          "name": "tokenId",
          "type": "uint256"
        }
      ],
      "name": "getApproved",
      "outputs": [
        {
          "internalType": "address",
          "name": "",
          "type": "address"
        }
      ],
      "stateMutability": "view",
      "type": "function"
    },
    {
      "inputs": [
        {
          "internalType": "uint256",
          "name": "proposalId",
          "type": "uint256"
        }
      ],
      "name": "grantMembership",
      "outputs": [
        {
          "internalType": "uint256",
          "name": "",
          "type": "uint256"
        }
      ],
      "stateMutability": "nonpayable",
      "type": "function"
    },
    {
      "inputs": [
        {
          "internalType": "address",
          "name": "owner",
          "type": "address"
        },
        {
          "internalType": "address",
          "name": "operator",
          "type": "address"
        }
      ],
      "name": "isApprovedForAll",
      "outputs": [
        {
          "internalType": "bool",
          "name": "",
          "type": "bool"
        }
      ],
      "stateMutability": "view",
      "type": "function"
    },
    {
      "inputs": [
        {
          "internalType": "address",
          "name": "",
          "type": "address"
        }
      ],
      "name": "latestProposalIds",
      "outputs": [
        {
          "internalType": "uint256",
          "name": "",
          "type": "uint256"
        }
      ],
      "stateMutability": "view",
      "type": "function"
    },
    {
      "inputs": [],
      "name": "name",
      "outputs": [
        {
          "internalType": "string",
          "name": "",
          "type": "string"
        }
      ],
      "stateMutability": "view",
      "type": "function"
    },
    {
      "inputs": [],
      "name": "owner",
      "outputs": [
        {
          "internalType": "address",
          "name": "",
          "type": "address"
        }
      ],
      "stateMutability": "view",
      "type": "function"
    },
    {
      "inputs": [
        {
          "internalType": "uint256",
          "name": "tokenId",
          "type": "uint256"
        }
      ],
      "name": "ownerOf",
      "outputs": [
        {
          "internalType": "address",
          "name": "",
          "type": "address"
        }
      ],
      "stateMutability": "view",
      "type": "function"
    },
    {
      "inputs": [],
      "name": "proposalCount",
      "outputs": [
        {
          "internalType": "uint256",
          "name": "",
          "type": "uint256"
        }
      ],
      "stateMutability": "view",
      "type": "function"
    },
    {
      "inputs": [
        {
          "internalType": "uint256",
          "name": "",
          "type": "uint256"
        }
      ],
      "name": "proposals",
      "outputs": [
        {
          "internalType": "uint256",
          "name": "id",
          "type": "uint256"
        },
        {
          "internalType": "address",
          "name": "proposer",
          "type": "address"
        },
        {
          "internalType": "string",
          "name": "did",
          "type": "string"
        },
        {
          "internalType": "bool",
          "name": "denied",
          "type": "bool"
        },
        {
          "internalType": "bool",
          "name": "accepted",
          "type": "bool"
        }
      ],
      "stateMutability": "view",
      "type": "function"
    },
    {
      "inputs": [],
      "name": "renounceOwnership",
      "outputs": [],
      "stateMutability": "nonpayable",
      "type": "function"
    },
    {
      "inputs": [
        {
          "internalType": "string",
          "name": "_did",
          "type": "string"
        }
      ],
      "name": "requestMembership",
      "outputs": [],
      "stateMutability": "nonpayable",
      "type": "function"
    },
    {
      "inputs": [
        {
          "internalType": "address",
          "name": "from",
          "type": "address"
        },
        {
          "internalType": "address",
          "name": "to",
          "type": "address"
        },
        {
          "internalType": "uint256",
          "name": "tokenId",
          "type": "uint256"
        }
      ],
      "name": "safeTransferFrom",
      "outputs": [],
      "stateMutability": "nonpayable",
      "type": "function"
    },
    {
      "inputs": [
        {
          "internalType": "address",
          "name": "from",
          "type": "address"
        },
        {
          "internalType": "address",
          "name": "to",
          "type": "address"
        },
        {
          "internalType": "uint256",
          "name": "tokenId",
          "type": "uint256"
        },
        {
          "internalType": "bytes",
          "name": "_data",
          "type": "bytes"
        }
      ],
      "name": "safeTransferFrom",
      "outputs": [],
      "stateMutability": "nonpayable",
      "type": "function"
    },
    {
      "inputs": [
        {
          "internalType": "address",
          "name": "operator",
          "type": "address"
        },
        {
          "internalType": "bool",
          "name": "approved",
          "type": "bool"
        }
      ],
      "name": "setApprovalForAll",
      "outputs": [],
      "stateMutability": "nonpayable",
      "type": "function"
    },
    {
      "inputs": [
        {
          "internalType": "bytes4",
          "name": "interfaceId",
          "type": "bytes4"
        }
      ],
      "name": "supportsInterface",
      "outputs": [
        {
          "internalType": "bool",
          "name": "",
          "type": "bool"
        }
      ],
      "stateMutability": "view",
      "type": "function"
    },
    {
      "inputs": [],
      "name": "symbol",
      "outputs": [
        {
          "internalType": "string",
          "name": "",
          "type": "string"
        }
      ],
      "stateMutability": "view",
      "type": "function"
    },
    {
      "inputs": [
        {
          "internalType": "uint256",
          "name": "index",
          "type": "uint256"
        }
      ],
      "name": "tokenByIndex",
      "outputs": [
        {
          "internalType": "uint256",
          "name": "",
          "type": "uint256"
        }
      ],
      "stateMutability": "view",
      "type": "function"
    },
    {
      "inputs": [
        {
          "internalType": "address",
          "name": "owner",
          "type": "address"
        },
        {
          "internalType": "uint256",
          "name": "index",
          "type": "uint256"
        }
      ],
      "name": "tokenOfOwnerByIndex",
      "outputs": [
        {
          "internalType": "uint256",
          "name": "",
          "type": "uint256"
        }
      ],
      "stateMutability": "view",
      "type": "function"
    },
    {
      "inputs": [],
      "name": "tokenURI",
      "outputs": [
        {
          "internalType": "string",
          "name": "",
          "type": "string"
        }
      ],
      "stateMutability": "view",
      "type": "function"
    },
    {
      "inputs": [
        {
          "internalType": "uint256",
          "name": "tokenId",
          "type": "uint256"
        }
      ],
      "name": "tokenURI",
      "outputs": [
        {
          "internalType": "string",
          "name": "",
          "type": "string"
        }
      ],
      "stateMutability": "view",
      "type": "function"
    },
    {
      "inputs": [],
      "name": "totalSupply",
      "outputs": [
        {
          "internalType": "uint256",
          "name": "",
          "type": "uint256"
        }
      ],
      "stateMutability": "view",
      "type": "function"
    },
    {
      "inputs": [
        {
          "internalType": "address",
          "name": "from",
          "type": "address"
        },
        {
          "internalType": "address",
          "name": "to",
          "type": "address"
        },
        {
          "internalType": "uint256",
          "name": "tokenId",
          "type": "uint256"
        }
      ],
      "name": "transferFrom",
      "outputs": [],
      "stateMutability": "nonpayable",
      "type": "function"
    },
    {
      "inputs": [
        {
          "internalType": "address",
          "name": "newOwner",
          "type": "address"
        }
      ],
      "name": "transferOwnership",
      "outputs": [],
      "stateMutability": "nonpayable",
      "type": "function"
    }
  ],
  "transactionHash": "0x8f98de32a0ebc53a37580218853d3d8006f4b1989c027b15b9edbba142e645f3",
  "args": [
    "QmcY5tWBFHjBW21g4R6EaATD5yY8zVDbEmU2kXx8z15VcE",
    "0x32645c7b37a9F7876109e668490FEe83A3305b5A"
  ],
  "solcInputHash": "7496ee457fb2cc8e44eaf36704bb065e",
  "bytecode": "0x60806040523480156200001157600080fd5b5060405162002a6238038062002a62833981810160405260408110156200003757600080fd5b81019080805160405193929190846401000000008211156200005857600080fd5b9083019060208201858111156200006e57600080fd5b82516401000000008111828201881017156200008957600080fd5b82525081516020918201929091019080838360005b83811015620000b85781810151838201526020016200009e565b50505050905090810190601f168015620000e65780820380516001836020036101000a031916815260200191505b5060408181526020928301518282018252600a83526904d656d626572736869760b41b848401528151808301909252600382526210d3d360ea1b9382019390935291935091506200013e6301ffc9a760e01b62000215565b815162000153906006906020850190620003b8565b50805162000169906007906020840190620003b8565b506200017c6380ac58cd60e01b62000215565b6200018e635b5e139f60e01b62000215565b620001a063780e9d6360e01b62000215565b5060009050620001af6200029a565b600a80546001600160a01b0319166001600160a01b0383169081179091556040519192509060009060008051602062002a42833981519152908290a35081516200020190600c906020850190620003b8565b506200020d816200029e565b505062000464565b6001600160e01b0319808216141562000275576040805162461bcd60e51b815260206004820152601c60248201527f4552433136353a20696e76616c696420696e7465726661636520696400000000604482015290519081900360640190fd5b6001600160e01b0319166000908152602081905260409020805460ff19166001179055565b3390565b620002a86200029a565b6001600160a01b0316620002bb620003a9565b6001600160a01b03161462000317576040805162461bcd60e51b815260206004820181905260248201527f4f776e61626c653a2063616c6c6572206973206e6f7420746865206f776e6572604482015290519081900360640190fd5b6001600160a01b0381166200035e5760405162461bcd60e51b815260040180806020018281038252602681526020018062002a1c6026913960400191505060405180910390fd5b600a546040516001600160a01b0380841692169060008051602062002a4283398151915290600090a3600a80546001600160a01b0319166001600160a01b0392909216919091179055565b600a546001600160a01b031690565b828054600181600116156101000203166002900490600052602060002090601f016020900481019282620003f057600085556200043b565b82601f106200040b57805160ff19168380011785556200043b565b828001600101855582156200043b579182015b828111156200043b5782518255916020019190600101906200041e565b50620004499291506200044d565b5090565b5b808211156200044957600081556001016200044e565b6125a880620004746000396000f3fe608060405234801561001057600080fd5b50600436106101a95760003560e01c80635aa5e948116100f9578063a22cb46511610097578063da35c66411610071578063da35c664146106bf578063e051476e146106c7578063e985e9c5146106e4578063f2fde38b14610712576101a9565b8063a22cb465146105ae578063b88d4fde146105dc578063c87b56dd146106a2576101a9565b806370a08231116100d357806370a0823114610570578063715018a6146105965780638da5cb5b1461059e57806395d89b41146105a6576101a9565b80635aa5e948146104a55780636352211e1461054b5780636c0360eb14610568576101a9565b806318160ddd116101665780633c130d90116101405780633c130d901461042d57806342842e0e146104355780634b4acc761461046b5780634f6ccce714610488576101a9565b806318160ddd146103c357806323b872dd146103cb5780632f745c5914610401576101a9565b8063013cf08b146101ae57806301ffc9a71461026c57806306fdde03146102a7578063081812fc14610324578063095ea7b31461035d57806317977c611461038b575b600080fd5b6101cb600480360360208110156101c457600080fd5b5035610738565b60405180868152602001856001600160a01b031681526020018060200184151581526020018315158152602001828103825285818151815260200191508051906020019080838360005b8381101561022d578181015183820152602001610215565b50505050905090810190601f16801561025a5780820380516001836020036101000a031916815260200191505b50965050505050505060405180910390f35b6102936004803603602081101561028257600080fd5b50356001600160e01b031916610800565b604080519115158252519081900360200190f35b6102af610823565b6040805160208082528351818301528351919283929083019185019080838360005b838110156102e95781810151838201526020016102d1565b50505050905090810190601f1680156103165780820380516001836020036101000a031916815260200191505b509250505060405180910390f35b6103416004803603602081101561033a57600080fd5b50356108b9565b604080516001600160a01b039092168252519081900360200190f35b6103896004803603604081101561037357600080fd5b506001600160a01b03813516906020013561091b565b005b6103b1600480360360208110156103a157600080fd5b50356001600160a01b03166109f6565b60408051918252519081900360200190f35b6103b1610a08565b610389600480360360608110156103e157600080fd5b506001600160a01b03813581169160208101359091169060400135610a19565b6103b16004803603604081101561041757600080fd5b506001600160a01b038135169060200135610a70565b6102af610a9b565b6103896004803603606081101561044b57600080fd5b506001600160a01b03813581169160208101359091169060400135610b29565b6103896004803603602081101561048157600080fd5b5035610b44565b6103b16004803603602081101561049e57600080fd5b5035610bc4565b610389600480360360208110156104bb57600080fd5b8101906020810181356401000000008111156104d657600080fd5b8201836020820111156104e857600080fd5b8035906020019184600183028401116401000000008311171561050a57600080fd5b91908080601f016020809104026020016040519081016040528093929190818152602001838380828437600092019190915250929550610bda945050505050565b6103416004803603602081101561056157600080fd5b5035610d03565b6102af610d2b565b6103b16004803603602081101561058657600080fd5b50356001600160a01b0316610d8c565b610389610df4565b610341610ea0565b6102af610eaf565b610389600480360360408110156105c457600080fd5b506001600160a01b0381351690602001351515610f10565b610389600480360360808110156105f257600080fd5b6001600160a01b0382358116926020810135909116916040820135919081019060808101606082013564010000000081111561062d57600080fd5b82018360208201111561063f57600080fd5b8035906020019184600183028401116401000000008311171561066157600080fd5b91908080601f016020809104026020016040519081016040528093929190818152602001838380828437600092019190915250929550611015945050505050565b6102af600480360360208110156106b857600080fd5b5035611073565b6103b16112f6565b6103b1600480360360208110156106dd57600080fd5b50356112fc565b610293600480360360408110156106fa57600080fd5b506001600160a01b038135811691602001351661144e565b6103896004803603602081101561072857600080fd5b50356001600160a01b031661147c565b600e6020908152600091825260409182902080546001808301546002808501805488516101009582161595909502600019011691909104601f810187900487028401870190975286835292956001600160a01b03909116949192918301828280156107e45780601f106107b9576101008083540402835291602001916107e4565b820191906000526020600020905b8154815290600101906020018083116107c757829003601f168201915b5050506003909301549192505060ff8082169161010090041685565b6001600160e01b0319811660009081526020819052604090205460ff165b919050565b60068054604080516020601f60026000196101006001881615020190951694909404938401819004810282018101909252828152606093909290918301828280156108af5780601f10610884576101008083540402835291602001916108af565b820191906000526020600020905b81548152906001019060200180831161089257829003601f168201915b5050505050905090565b60006108c48261157f565b6108ff5760405162461bcd60e51b815260040180806020018281038252602c815260200180612451602c913960400191505060405180910390fd5b506000908152600460205260409020546001600160a01b031690565b600061092682610d03565b9050806001600160a01b0316836001600160a01b031614156109795760405162461bcd60e51b81526004018080602001828103825260218152602001806125216021913960400191505060405180910390fd5b806001600160a01b031661098b61158c565b6001600160a01b031614806109ac57506109ac816109a761158c565b61144e565b6109e75760405162461bcd60e51b81526004018080602001828103825260388152602001806123a46038913960400191505060405180910390fd5b6109f18383611590565b505050565b600f6020526000908152604090205481565b6000610a1460026115fe565b905090565b610a2a610a2461158c565b82611609565b610a655760405162461bcd60e51b81526004018080602001828103825260318152602001806125426031913960400191505060405180910390fd5b6109f18383836116ad565b6001600160a01b0382166000908152600160205260408120610a9290836117f9565b90505b92915050565b600c805460408051602060026001851615610100026000190190941693909304601f81018490048402820184019092528181529291830182828015610b215780601f10610af657610100808354040283529160200191610b21565b820191906000526020600020905b815481529060010190602001808311610b0457829003601f168201915b505050505081565b6109f183838360405180602001604052806000815250611015565b610b4c61158c565b6001600160a01b0316610b5d610ea0565b6001600160a01b031614610ba6576040805162461bcd60e51b815260206004820181905260248201526000805160206124a9833981519152604482015290519081900360640190fd5b6000908152600e60205260409020600301805460ff19166001179055565b600080610bd2600284611805565b509392505050565b336000908152600f602052604090205480610c3c576040805162461bcd60e51b815260206004820152601e60248201527f4f6e65206c6976652070726f706f73616c207065722070726f706f7365720000604482015290519081900360640190fd5b600d80546001019055610c4d6121fc565b506040805160a081018252600d5480825233602080840191825283850187815260006060860181905260808601819052938452600e8252949092208351815590516001820180546001600160a01b0319166001600160a01b0390921691909117905592518051929384939092610cca926002850192910190612238565b5060608201516003909101805460809093015115156101000261ff001992151560ff199094169390931791909116919091179055505050565b6000610a95826040518060600160405280602981526020016124066029913960029190611821565b60098054604080516020601f60026000196101006001881615020190951694909404938401819004810282018101909252828152606093909290918301828280156108af5780601f10610884576101008083540402835291602001916108af565b60006001600160a01b038216610dd35760405162461bcd60e51b815260040180806020018281038252602a8152602001806123dc602a913960400191505060405180910390fd5b6001600160a01b0382166000908152600160205260409020610a95906115fe565b610dfc61158c565b6001600160a01b0316610e0d610ea0565b6001600160a01b031614610e56576040805162461bcd60e51b815260206004820181905260248201526000805160206124a9833981519152604482015290519081900360640190fd5b600a546040516000916001600160a01b0316907f8be0079c531659141344cd1fd0a4f28419497f9722a3daafe3b4186f6b6457e0908390a3600a80546001600160a01b0319169055565b600a546001600160a01b031690565b60078054604080516020601f60026000196101006001881615020190951694909404938401819004810282018101909252828152606093909290918301828280156108af5780601f10610884576101008083540402835291602001916108af565b610f1861158c565b6001600160a01b0316826001600160a01b03161415610f7e576040805162461bcd60e51b815260206004820152601960248201527f4552433732313a20617070726f766520746f2063616c6c657200000000000000604482015290519081900360640190fd5b8060056000610f8b61158c565b6001600160a01b03908116825260208083019390935260409182016000908120918716808252919093529120805460ff191692151592909217909155610fcf61158c565b6001600160a01b03167f17307eab39ab6107e8899845ad3d59bd9653f200f220920489ca2b5937696c318360405180821515815260200191505060405180910390a35050565b61102661102061158c565b83611609565b6110615760405162461bcd60e51b81526004018080602001828103825260318152602001806125426031913960400191505060405180910390fd5b61106d8484848461182e565b50505050565b606061107e8261157f565b6110b95760405162461bcd60e51b815260040180806020018281038252602f8152602001806124f2602f913960400191505060405180910390fd5b60008281526008602090815260409182902080548351601f600260001961010060018616150201909316929092049182018490048402810184019094528084526060939283018282801561114e5780601f106111235761010080835404028352916020019161114e565b820191906000526020600020905b81548152906001019060200180831161113157829003601f168201915b50505050509050606061115f610d2b565b90508051600014156111735750905061081e565b8151156112345780826040516020018083805190602001908083835b602083106111ae5780518252601f19909201916020918201910161118f565b51815160209384036101000a600019018019909216911617905285519190930192850191508083835b602083106111f65780518252601f1990920191602091820191016111d7565b6001836020036101000a038019825116818451168082178552505050505050905001925050506040516020818303038152906040529250505061081e565b8061123e85611880565b6040516020018083805190602001908083835b602083106112705780518252601f199092019160209182019101611251565b51815160209384036101000a600019018019909216911617905285519190930192850191508083835b602083106112b85780518252601f199092019160209182019101611299565b6001836020036101000a0380198251168184511680821785525050505050509050019250505060405160208183030381529060405292505050919050565b600d5481565b600061130661158c565b6001600160a01b0316611317610ea0565b6001600160a01b031614611360576040805162461bcd60e51b815260206004820181905260248201526000805160206124a9833981519152604482015290519081900360640190fd5b61136a600b61195b565b6000828152600e6020526040812060038101805461ff00191661010017905590611394600b611964565b60018301549091506113af906001600160a01b031682611968565b600c805460408051602060026001851615610100026000190190941693909304601f81018490048402820184019092528181526114479385939192909183018282801561143d5780601f106114125761010080835404028352916020019161143d565b820191906000526020600020905b81548152906001019060200180831161142057829003601f168201915b5050505050611a96565b9392505050565b6001600160a01b03918216600090815260056020908152604080832093909416825291909152205460ff1690565b61148461158c565b6001600160a01b0316611495610ea0565b6001600160a01b0316146114de576040805162461bcd60e51b815260206004820181905260248201526000805160206124a9833981519152604482015290519081900360640190fd5b6001600160a01b0381166115235760405162461bcd60e51b815260040180806020018281038252602681526020018061232e6026913960400191505060405180910390fd5b600a546040516001600160a01b038084169216907f8be0079c531659141344cd1fd0a4f28419497f9722a3daafe3b4186f6b6457e090600090a3600a80546001600160a01b0319166001600160a01b0392909216919091179055565b6000610a95600283611af9565b3390565b600081815260046020526040902080546001600160a01b0319166001600160a01b03841690811790915581906115c582610d03565b6001600160a01b03167f8c5be1e5ebec7d5bd14f71427d1e84f3dd0314c0f7b2291e5b200ac8c7c3b92560405160405180910390a45050565b6000610a9582611964565b60006116148261157f565b61164f5760405162461bcd60e51b815260040180806020018281038252602c815260200180612378602c913960400191505060405180910390fd5b600061165a83610d03565b9050806001600160a01b0316846001600160a01b031614806116955750836001600160a01b031661168a846108b9565b6001600160a01b0316145b806116a557506116a5818561144e565b949350505050565b826001600160a01b03166116c082610d03565b6001600160a01b0316146117055760405162461bcd60e51b81526004018080602001828103825260298152602001806124c96029913960400191505060405180910390fd5b6001600160a01b03821661174a5760405162461bcd60e51b81526004018080602001828103825260248152602001806123546024913960400191505060405180910390fd5b611755838383611b05565b611760600082611590565b6001600160a01b03831660009081526001602052604090206117829082611b6c565b506001600160a01b03821660009081526001602052604090206117a59082611b78565b506117b260028284611b84565b5080826001600160a01b0316846001600160a01b03167fddf252ad1be2c89b69c2b068fc378daa952ba7f163c4a11628f55a4df523b3ef60405160405180910390a4505050565b6000610a928383611b9a565b60008080806118148686611bfe565b9097909650945050505050565b60006116a5848484611c79565b6118398484846116ad565b61184584848484611d43565b61106d5760405162461bcd60e51b81526004018080602001828103825260328152602001806122fc6032913960400191505060405180910390fd5b6060816118a557506040805180820190915260018152600360fc1b602082015261081e565b8160005b81156118bd57600101600a820491506118a9565b60608167ffffffffffffffff811180156118d657600080fd5b506040519080825280601f01601f191660200182016040528015611901576020820181803683370190505b50859350905060001982015b831561195257600a840660300160f81b8282806001900393508151811061193057fe5b60200101906001600160f81b031916908160001a905350600a8404935061190d565b50949350505050565b80546001019055565b5490565b6001600160a01b0382166119c3576040805162461bcd60e51b815260206004820181905260248201527f4552433732313a206d696e7420746f20746865207a65726f2061646472657373604482015290519081900360640190fd5b6119cc8161157f565b15611a1e576040805162461bcd60e51b815260206004820152601c60248201527f4552433732313a20746f6b656e20616c7265616479206d696e74656400000000604482015290519081900360640190fd5b611a2a60008383611b05565b6001600160a01b0382166000908152600160205260409020611a4c9082611b78565b50611a5960028284611b84565b5060405181906001600160a01b038416906000907fddf252ad1be2c89b69c2b068fc378daa952ba7f163c4a11628f55a4df523b3ef908290a45050565b611a9f8261157f565b611ada5760405162461bcd60e51b815260040180806020018281038252602c81526020018061247d602c913960400191505060405180910390fd5b600082815260086020908152604090912082516109f192840190612238565b6000610a928383611eab565b611b108383836109f1565b6001600160a01b038316156109f1576040805162461bcd60e51b815260206004820152601760248201527f546f6b656e2063616e2774206265207472616e73666572000000000000000000604482015290519081900360640190fd5b6000610a928383611ec3565b6000610a928383611f89565b60006116a584846001600160a01b038516611fd3565b81546000908210611bdc5760405162461bcd60e51b81526004018080602001828103825260228152602001806122da6022913960400191505060405180910390fd5b826000018281548110611beb57fe5b9060005260206000200154905092915050565b815460009081908310611c425760405162461bcd60e51b815260040180806020018281038252602281526020018061242f6022913960400191505060405180910390fd5b6000846000018481548110611c5357fe5b906000526020600020906002020190508060000154816001015492509250509250929050565b60008281526001840160205260408120548281611d145760405162461bcd60e51b81526004018080602001828103825283818151815260200191508051906020019080838360005b83811015611cd9578181015183820152602001611cc1565b50505050905090810190601f168015611d065780820380516001836020036101000a031916815260200191505b509250505060405180910390fd5b50846000016001820381548110611d2757fe5b9060005260206000209060020201600101549150509392505050565b6000611d57846001600160a01b031661206a565b611d63575060016116a5565b6060611e71630a85bd0160e11b611d7861158c565b88878760405160240180856001600160a01b03168152602001846001600160a01b0316815260200183815260200180602001828103825283818151815260200191508051906020019080838360005b83811015611ddf578181015183820152602001611dc7565b50505050905090810190601f168015611e0c5780820380516001836020036101000a031916815260200191505b5095505050505050604051602081830303815290604052906001600160e01b0319166020820180516001600160e01b0383818316178352505050506040518060600160405280603281526020016122fc603291396001600160a01b0388169190612070565b90506000818060200190516020811015611e8a57600080fd5b50516001600160e01b031916630a85bd0160e11b1492505050949350505050565b60009081526001919091016020526040902054151590565b60008181526001830160205260408120548015611f7f5783546000198083019190810190600090879083908110611ef657fe5b9060005260206000200154905080876000018481548110611f1357fe5b600091825260208083209091019290925582815260018981019092526040902090840190558654879080611f4357fe5b60019003818190600052602060002001600090559055866001016000878152602001908152602001600020600090556001945050505050610a95565b6000915050610a95565b6000611f958383611eab565b611fcb57508154600181810184556000848152602080822090930184905584548482528286019093526040902091909155610a95565b506000610a95565b600082815260018401602052604081205480612038575050604080518082018252838152602080820184815286546001818101895560008981528481209551600290930290950191825591519082015586548684528188019092529290912055611447565b8285600001600183038154811061204b57fe5b9060005260206000209060020201600101819055506000915050611447565b3b151590565b60606116a58484600085856120848561206a565b6120d5576040805162461bcd60e51b815260206004820152601d60248201527f416464726573733a2063616c6c20746f206e6f6e2d636f6e7472616374000000604482015290519081900360640190fd5b60006060866001600160a01b031685876040518082805190602001908083835b602083106121145780518252601f1990920191602091820191016120f5565b6001836020036101000a03801982511681845116808217855250505050505090500191505060006040518083038185875af1925050503d8060008114612176576040519150601f19603f3d011682016040523d82523d6000602084013e61217b565b606091505b509150915061218b828286612196565b979650505050505050565b606083156121a5575081611447565b8251156121b55782518084602001fd5b60405162461bcd60e51b8152602060048201818152845160248401528451859391928392604401919085019080838360008315611cd9578181015183820152602001611cc1565b6040518060a001604052806000815260200160006001600160a01b03168152602001606081526020016000151581526020016000151581525090565b828054600181600116156101000203166002900490600052602060002090601f01602090048101928261226e57600085556122b4565b82601f1061228757805160ff19168380011785556122b4565b828001600101855582156122b4579182015b828111156122b4578251825591602001919060010190612299565b506122c09291506122c4565b5090565b5b808211156122c057600081556001016122c556fe456e756d657261626c655365743a20696e646578206f7574206f6620626f756e64734552433732313a207472616e7366657220746f206e6f6e20455243373231526563656976657220696d706c656d656e7465724f776e61626c653a206e6577206f776e657220697320746865207a65726f20616464726573734552433732313a207472616e7366657220746f20746865207a65726f20616464726573734552433732313a206f70657261746f7220717565727920666f72206e6f6e6578697374656e7420746f6b656e4552433732313a20617070726f76652063616c6c6572206973206e6f74206f776e6572206e6f7220617070726f76656420666f7220616c6c4552433732313a2062616c616e636520717565727920666f7220746865207a65726f20616464726573734552433732313a206f776e657220717565727920666f72206e6f6e6578697374656e7420746f6b656e456e756d657261626c654d61703a20696e646578206f7574206f6620626f756e64734552433732313a20617070726f76656420717565727920666f72206e6f6e6578697374656e7420746f6b656e4552433732314d657461646174613a2055524920736574206f66206e6f6e6578697374656e7420746f6b656e4f776e61626c653a2063616c6c6572206973206e6f7420746865206f776e65724552433732313a207472616e73666572206f6620746f6b656e2074686174206973206e6f74206f776e4552433732314d657461646174613a2055524920717565727920666f72206e6f6e6578697374656e7420746f6b656e4552433732313a20617070726f76616c20746f2063757272656e74206f776e65724552433732313a207472616e736665722063616c6c6572206973206e6f74206f776e6572206e6f7220617070726f766564a26469706673582212200f9772ffedec362265505a2aec6031807d29590b0b324b80f2b436b643c835d364736f6c634300070500334f776e61626c653a206e6577206f776e657220697320746865207a65726f20616464726573738be0079c531659141344cd1fd0a4f28419497f9722a3daafe3b4186f6b6457e0",
  "devdoc": {
    "kind": "dev",
    "methods": {
      "approve(address,uint256)": {
        "details": "See {IERC721-approve}."
      },
      "balanceOf(address)": {
        "details": "See {IERC721-balanceOf}."
      },
      "baseURI()": {
        "details": "Returns the base URI set via {_setBaseURI}. This will be automatically added as a prefix in {tokenURI} to each token's URI, or to the token ID if no specific URI is set for that token ID."
      },
      "getApproved(uint256)": {
        "details": "See {IERC721-getApproved}."
      },
      "isApprovedForAll(address,address)": {
        "details": "See {IERC721-isApprovedForAll}."
      },
      "name()": {
        "details": "See {IERC721Metadata-name}."
      },
      "owner()": {
        "details": "Returns the address of the current owner."
      },
      "ownerOf(uint256)": {
        "details": "See {IERC721-ownerOf}."
      },
      "renounceOwnership()": {
        "details": "Leaves the contract without owner. It will not be possible to call `onlyOwner` functions anymore. Can only be called by the current owner. NOTE: Renouncing ownership will leave the contract without an owner, thereby removing any functionality that is only available to the owner."
      },
      "safeTransferFrom(address,address,uint256)": {
        "details": "See {IERC721-safeTransferFrom}."
      },
      "safeTransferFrom(address,address,uint256,bytes)": {
        "details": "See {IERC721-safeTransferFrom}."
      },
      "setApprovalForAll(address,bool)": {
        "details": "See {IERC721-setApprovalForAll}."
      },
      "supportsInterface(bytes4)": {
        "details": "See {IERC165-supportsInterface}. Time complexity O(1), guaranteed to always use less than 30 000 gas."
      },
      "symbol()": {
        "details": "See {IERC721Metadata-symbol}."
      },
      "tokenByIndex(uint256)": {
        "details": "See {IERC721Enumerable-tokenByIndex}."
      },
      "tokenOfOwnerByIndex(address,uint256)": {
        "details": "See {IERC721Enumerable-tokenOfOwnerByIndex}."
      },
      "tokenURI(uint256)": {
        "details": "See {IERC721Metadata-tokenURI}."
      },
      "totalSupply()": {
        "details": "See {IERC721Enumerable-totalSupply}."
      },
      "transferFrom(address,address,uint256)": {
        "details": "See {IERC721-transferFrom}."
      },
      "transferOwnership(address)": {
        "details": "Transfers ownership of the contract to a new account (`newOwner`). Can only be called by the current owner."
      }
    },
    "version": 1
  },
  "userdoc": {
    "kind": "user",
    "methods": {},
    "version": 1
  },
  "storageLayout": {
    "storage": [
      {
        "astId": 123,
        "contract": "contracts/Memberships.sol:Memberships",
        "label": "_supportedInterfaces",
        "offset": 0,
        "slot": "0",
        "type": "t_mapping(t_bytes4,t_bool)"
      },
      {
        "astId": 579,
        "contract": "contracts/Memberships.sol:Memberships",
        "label": "_holderTokens",
        "offset": 0,
        "slot": "1",
        "type": "t_mapping(t_address,t_struct(UintSet)2994_storage)"
      },
      {
        "astId": 581,
        "contract": "contracts/Memberships.sol:Memberships",
        "label": "_tokenOwners",
        "offset": 0,
        "slot": "2",
        "type": "t_struct(UintToAddressMap)2371_storage"
      },
      {
        "astId": 585,
        "contract": "contracts/Memberships.sol:Memberships",
        "label": "_tokenApprovals",
        "offset": 0,
        "slot": "4",
        "type": "t_mapping(t_uint256,t_address)"
      },
      {
        "astId": 591,
        "contract": "contracts/Memberships.sol:Memberships",
        "label": "_operatorApprovals",
        "offset": 0,
        "slot": "5",
        "type": "t_mapping(t_address,t_mapping(t_address,t_bool))"
      },
      {
        "astId": 593,
        "contract": "contracts/Memberships.sol:Memberships",
        "label": "_name",
        "offset": 0,
        "slot": "6",
        "type": "t_string_storage"
      },
      {
        "astId": 595,
        "contract": "contracts/Memberships.sol:Memberships",
        "label": "_symbol",
        "offset": 0,
        "slot": "7",
        "type": "t_string_storage"
      },
      {
        "astId": 599,
        "contract": "contracts/Memberships.sol:Memberships",
        "label": "_tokenURIs",
        "offset": 0,
        "slot": "8",
        "type": "t_mapping(t_uint256,t_string_storage)"
      },
      {
        "astId": 601,
        "contract": "contracts/Memberships.sol:Memberships",
        "label": "_baseURI",
        "offset": 0,
        "slot": "9",
        "type": "t_string_storage"
      },
      {
        "astId": 7,
        "contract": "contracts/Memberships.sol:Memberships",
        "label": "_owner",
        "offset": 0,
        "slot": "10",
        "type": "t_address"
      },
      {
        "astId": 6053,
        "contract": "contracts/Memberships.sol:Memberships",
        "label": "_tokenIds",
        "offset": 0,
        "slot": "11",
        "type": "t_struct(Counter)1997_storage"
      },
      {
        "astId": 6055,
        "contract": "contracts/Memberships.sol:Memberships",
        "label": "tokenURI",
        "offset": 0,
        "slot": "12",
        "type": "t_string_storage"
      },
      {
        "astId": 6057,
        "contract": "contracts/Memberships.sol:Memberships",
        "label": "proposalCount",
        "offset": 0,
        "slot": "13",
        "type": "t_uint256"
      },
      {
        "astId": 6072,
        "contract": "contracts/Memberships.sol:Memberships",
        "label": "proposals",
        "offset": 0,
        "slot": "14",
        "type": "t_mapping(t_uint256,t_struct(Proposal)6068_storage)"
      },
      {
        "astId": 6076,
        "contract": "contracts/Memberships.sol:Memberships",
        "label": "latestProposalIds",
        "offset": 0,
        "slot": "15",
        "type": "t_mapping(t_address,t_uint256)"
      }
    ],
    "types": {
      "t_address": {
        "encoding": "inplace",
        "label": "address",
        "numberOfBytes": "20"
      },
      "t_array(t_bytes32)dyn_storage": {
        "base": "t_bytes32",
        "encoding": "dynamic_array",
        "label": "bytes32[]",
        "numberOfBytes": "32"
      },
      "t_array(t_struct(MapEntry)2045_storage)dyn_storage": {
        "base": "t_struct(MapEntry)2045_storage",
        "encoding": "dynamic_array",
        "label": "struct EnumerableMap.MapEntry[]",
        "numberOfBytes": "32"
      },
      "t_bool": {
        "encoding": "inplace",
        "label": "bool",
        "numberOfBytes": "1"
      },
      "t_bytes32": {
        "encoding": "inplace",
        "label": "bytes32",
        "numberOfBytes": "32"
      },
      "t_bytes4": {
        "encoding": "inplace",
        "label": "bytes4",
        "numberOfBytes": "4"
      },
      "t_mapping(t_address,t_bool)": {
        "encoding": "mapping",
        "key": "t_address",
        "label": "mapping(address => bool)",
        "numberOfBytes": "32",
        "value": "t_bool"
      },
      "t_mapping(t_address,t_mapping(t_address,t_bool))": {
        "encoding": "mapping",
        "key": "t_address",
        "label": "mapping(address => mapping(address => bool))",
        "numberOfBytes": "32",
        "value": "t_mapping(t_address,t_bool)"
      },
      "t_mapping(t_address,t_struct(UintSet)2994_storage)": {
        "encoding": "mapping",
        "key": "t_address",
        "label": "mapping(address => struct EnumerableSet.UintSet)",
        "numberOfBytes": "32",
        "value": "t_struct(UintSet)2994_storage"
      },
      "t_mapping(t_address,t_uint256)": {
        "encoding": "mapping",
        "key": "t_address",
        "label": "mapping(address => uint256)",
        "numberOfBytes": "32",
        "value": "t_uint256"
      },
      "t_mapping(t_bytes32,t_uint256)": {
        "encoding": "mapping",
        "key": "t_bytes32",
        "label": "mapping(bytes32 => uint256)",
        "numberOfBytes": "32",
        "value": "t_uint256"
      },
      "t_mapping(t_bytes4,t_bool)": {
        "encoding": "mapping",
        "key": "t_bytes4",
        "label": "mapping(bytes4 => bool)",
        "numberOfBytes": "32",
        "value": "t_bool"
      },
      "t_mapping(t_uint256,t_address)": {
        "encoding": "mapping",
        "key": "t_uint256",
        "label": "mapping(uint256 => address)",
        "numberOfBytes": "32",
        "value": "t_address"
      },
      "t_mapping(t_uint256,t_string_storage)": {
        "encoding": "mapping",
        "key": "t_uint256",
        "label": "mapping(uint256 => string)",
        "numberOfBytes": "32",
        "value": "t_string_storage"
      },
      "t_mapping(t_uint256,t_struct(Proposal)6068_storage)": {
        "encoding": "mapping",
        "key": "t_uint256",
        "label": "mapping(uint256 => struct Memberships.Proposal)",
        "numberOfBytes": "32",
        "value": "t_struct(Proposal)6068_storage"
      },
      "t_string_storage": {
        "encoding": "bytes",
        "label": "string",
        "numberOfBytes": "32"
      },
      "t_struct(Counter)1997_storage": {
        "encoding": "inplace",
        "label": "struct Counters.Counter",
        "members": [
          {
            "astId": 1996,
            "contract": "contracts/Memberships.sol:Memberships",
            "label": "_value",
            "offset": 0,
            "slot": "0",
            "type": "t_uint256"
          }
        ],
        "numberOfBytes": "32"
      },
      "t_struct(Map)2053_storage": {
        "encoding": "inplace",
        "label": "struct EnumerableMap.Map",
        "members": [
          {
            "astId": 2048,
            "contract": "contracts/Memberships.sol:Memberships",
            "label": "_entries",
            "offset": 0,
            "slot": "0",
            "type": "t_array(t_struct(MapEntry)2045_storage)dyn_storage"
          },
          {
            "astId": 2052,
            "contract": "contracts/Memberships.sol:Memberships",
            "label": "_indexes",
            "offset": 0,
            "slot": "1",
            "type": "t_mapping(t_bytes32,t_uint256)"
          }
        ],
        "numberOfBytes": "64"
      },
      "t_struct(MapEntry)2045_storage": {
        "encoding": "inplace",
        "label": "struct EnumerableMap.MapEntry",
        "members": [
          {
            "astId": 2042,
            "contract": "contracts/Memberships.sol:Memberships",
            "label": "_key",
            "offset": 0,
            "slot": "0",
            "type": "t_bytes32"
          },
          {
            "astId": 2044,
            "contract": "contracts/Memberships.sol:Memberships",
            "label": "_value",
            "offset": 0,
            "slot": "1",
            "type": "t_bytes32"
          }
        ],
        "numberOfBytes": "64"
      },
      "t_struct(Proposal)6068_storage": {
        "encoding": "inplace",
        "label": "struct Memberships.Proposal",
        "members": [
          {
            "astId": 6059,
            "contract": "contracts/Memberships.sol:Memberships",
            "label": "id",
            "offset": 0,
            "slot": "0",
            "type": "t_uint256"
          },
          {
            "astId": 6061,
            "contract": "contracts/Memberships.sol:Memberships",
            "label": "proposer",
            "offset": 0,
            "slot": "1",
            "type": "t_address"
          },
          {
            "astId": 6063,
            "contract": "contracts/Memberships.sol:Memberships",
            "label": "did",
            "offset": 0,
            "slot": "2",
            "type": "t_string_storage"
          },
          {
            "astId": 6065,
            "contract": "contracts/Memberships.sol:Memberships",
            "label": "denied",
            "offset": 0,
            "slot": "3",
            "type": "t_bool"
          },
          {
            "astId": 6067,
            "contract": "contracts/Memberships.sol:Memberships",
            "label": "accepted",
            "offset": 1,
            "slot": "3",
            "type": "t_bool"
          }
        ],
        "numberOfBytes": "128"
      },
      "t_struct(Set)2608_storage": {
        "encoding": "inplace",
        "label": "struct EnumerableSet.Set",
        "members": [
          {
            "astId": 2603,
            "contract": "contracts/Memberships.sol:Memberships",
            "label": "_values",
            "offset": 0,
            "slot": "0",
            "type": "t_array(t_bytes32)dyn_storage"
          },
          {
            "astId": 2607,
            "contract": "contracts/Memberships.sol:Memberships",
            "label": "_indexes",
            "offset": 0,
            "slot": "1",
            "type": "t_mapping(t_bytes32,t_uint256)"
          }
        ],
        "numberOfBytes": "64"
      },
      "t_struct(UintSet)2994_storage": {
        "encoding": "inplace",
        "label": "struct EnumerableSet.UintSet",
        "members": [
          {
            "astId": 2993,
            "contract": "contracts/Memberships.sol:Memberships",
            "label": "_inner",
            "offset": 0,
            "slot": "0",
            "type": "t_struct(Set)2608_storage"
          }
        ],
        "numberOfBytes": "64"
      },
      "t_struct(UintToAddressMap)2371_storage": {
        "encoding": "inplace",
        "label": "struct EnumerableMap.UintToAddressMap",
        "members": [
          {
            "astId": 2370,
            "contract": "contracts/Memberships.sol:Memberships",
            "label": "_inner",
            "offset": 0,
            "slot": "0",
            "type": "t_struct(Map)2053_storage"
          }
        ],
        "numberOfBytes": "64"
      },
      "t_uint256": {
        "encoding": "inplace",
        "label": "uint256",
        "numberOfBytes": "32"
      }
    }
  }
}